:100000000C94E24E0C94134F0C94134F0C94134F1A
:100010000C94134F0C94134F0C94134F0C94134FD8
:100020000C94134F0C94134F0C94134F0C94134FC8
:100030000C940A690C94134F0D9418060C94DC80F0
:100040000C94134F0D94D70B0C94134F0C94134F27
:100050000C94134F0C94134F0C94134F0C943B5A65
:100060000C94134F0C94134F0C94134F0C94134F88
:100070000C94134F0C94DA5C0C94134F0C94134FA4
:100080000D944C080C94134F0C94134F0C94134F75
:100090000C945D630C94134F0C94134F0C94134FFA
:1000A0000C94134F0C94134F0C94E2690C94134F5F
:1000B0000C94134F0C94C4690C94134F0C94134F6D
:1000C0000C94134F0C94134F0C94134F0C94A16386
:1000D0000C94134F0C94134F0C94134F0C94134F18
:1000E0000C94134F0000000000000000000000000E
:1000F0000000000000000000000000000000000000
:10010000A55AB44B9C306C01EFE372668FC4931D0B
:10011000E9022C035E039303F40332048404C10454
:100120001F055C058D05A605BA05CD05E105F6059B
:100130000B061E06520673068806AB06D806EB06AB
:10014000FD0612075E078A07C507E802D807E10720
:100150004D087A08D5083209C909060A680ABB0A97
:10016000280B490B910B020C380C8B0CE30CF70C91
:100170002B0D570D960DC40D140E6B0EE00EA10F36
:10018000A90FB70FBF0FCB0FD20FDA0FE00FE50F9C
:10019000F30FFE0FE80204100810E8020E1017100B
:1001A00026103910431054106710E802761083109F
:1001B0009610A610B610E802C610D110DE10E81096
:1001C000F210FF1021112F11381149115611E802B8
:1001D00067117911E80286119711A611B611C6119F
:1001E000D611E911FC110D121A1221123312E80274
:1001F000401247124B125012611266126E127C129C
:100200008012E8028F1298129C12A012B312C4122C
:10021000EA12F61205133413411351135E137113CE
:1002200077137E1385139713A913B613CB13D51326
:10023000E713F41300140E141E143314441458144A
:100240006914781487149614A514B514C314CA1429
:10025000D514E802DC14E71424155A156E15791527
:100260008D15A015BA15EC15E802E8023B16AC1680
:100270001A176517B017E8170D18341845184C18D9
:100280005A186118711885189918D31826196D19FC
:10029000C4191D1A6F1AC31AEF1A3D1B671BD31B13
:1002A000661C8D1CAB1CD21C0A1D471D591D7F1DD1
:1002B000CD1DFE1D781ECC1E2E1F611FE21F362095
:1002C0007E20B920D32043217321E8216F22072308
:1002D0008823EC237124FF249B252126E80229266C
:1002E00031263926E8023F264426A226AE26B3262A
:1002F000C626DA26EF26FD260D27202732273A27A5
:10030000412752276727782783279327A227E802C8
:10031000B427C127D127E427F727FF27E8020C28B5
:100320002028352849285D28722887289C28AC2851
:10033000D428E528F828072919292E2936294829FB
:100340004F29562963296F297B298E299829A529A8
:10035000B029BC29C829D629002A7A2AF22A132BC7
:10036000812B8B2B962BA12BAC2BC12BD52BE12BCF
:10037000F52B052C182C2D2C3C2C502C612C732C7F
:10038000852C932CA62CB22CC72CD72CE82CFD2C1A
:10039000122D272D3C2D512D662DE8027B2D8B2D06
:1003A000A02DB02DC32DD72DEA2DF62D052E1A2EFA
:1003B0002F2E442E532E672E782E8D2EA22EB72E42
:1003C000CA2EDD2EF02E052F1A2F2E2F432F532F3E
:1003D000662F7A2F8F2FA42FB82FCD2FDC2FEB2F46
:1003E000FE2F3830493094300050726F626C656D6A
:1003F000652072656E636F6E7472652C20636C6924
:100400007175657A20737572206C6520626F7574E2
:100410006F6E20706F7572206E6976656C6C657298
:10042000206C27617865205A2E2E2E004368617556
:100430006666616765206465736163746976656586
:1004400020706172206C6520636F6D7074657572C9
:100450002064652073656375726974652E00472D8D
:10046000636F6465206120657465207072657061DA
:10047000726520706F757220756E206E6976656189
:100480007520646966662E20436F6E74696E7565AB
:10049000723F00472D636F6465206120657465209D
:1004A0007072657061726520706F757220756E2054
:1004B0006E697665617520646966666572656E74DD
:1004C0002E204465636F75706572206C65206D6FBA
:1004D00064656C652061206E6F75766561752E2090
:1004E000496D7072657373696F6E20616E6E756CA5
:1004F00065652E00472D636F646520612065746516
:10050000207072657061726520706F757220756EF3
:10051000652046572076657273696F6E20706C7522
:100520007320726563656E74652E20436F6E742E42
:100530003F00472D636F64652061206574652070FE
:1005400072657061726520706F757220756E206EB5
:100550006F75766561752046572E204D65747472EF
:10056000652061206A6F7572206C652046572E20C9
:10057000496D7072657373696F6E20616E6E756C14
:1005800065652E00472D636F646520612065746585
:10059000207072657061726520706F757220756E63
:1005A0002074797065206427696D2D207072696DE3
:1005B000616E7465206469662E20436F6E742E3FF1
:1005C00000472D636F646520706F757220756E2013
:1005D00074797065206427696D7072696D616E74DD
:1005E0006520646966666572656E742E2044656375
:1005F0006F75706572206C65206D6F64656C652029
:1006000061206E6F75766561752E20496D7072651B
:100610007373696F6E20616E6E756C65652E004137
:1006200070707579657A20737572206C6520626FC1
:1006300075746F6E20706F7572207072656368617B
:100640007566666572206C612062757365206574DD
:1006500020636F6E74696E7565722E0041707075DF
:1006600079657A20737572206C6520626F75746F7E
:100670006E20706F75722064656368617267657261
:10068000206C652066696C616D656E740065742010
:100690006170707579657A20737572206C6520625F
:1006A0006F75746F6E00496E736572657A206C6544
:1006B0002066696C616D656E7400436F756C65755D
:1006C0007220696E636F7272656374650046696C4F
:1006D000616D656E74206E6F6E2063686172676510
:1006E000004368616E676520636F7272656374654D
:1006F0006D656E743F0043686172672E20646520EB
:100700006C6120636F756C657572004368616E671C
:10071000656D656E742072657573736921004F7520
:100720007672657A206C2769646C65722065742026
:100730007265746972657A206C652066696C616D9A
:10074000656E74206D616E75656C6C656D656E743B
:100750002E0044656368617267656D656E74206420
:10076000752066696C616D656E7420726575737352
:10077000693F004D657474657A2061206A6F7572F7
:10078000206C652046572E004E6F7576656C6C6543
:100790002076657273696F6E206465204657206409
:1007A0006973706F6E69626C653A00417474656E4E
:1007B000746520647520726566726F69646973730D
:1007C000656D656E74206465206C6120736F6E6466
:1007D000652050494E4441004D657263692064654F
:1007E0002070617469656E74657200506173206475
:1007F00065206D6F7576656D656E742E004174743D
:10080000656E7465207574696C6973617465757261
:100810002E00556E652074656D7065726174757219
:100820006520616D6269616E746520737461626CCC
:10083000652064652032312D323643206574207581
:100840006E20737570706F727420737461626C6562
:1008500020736F6E74207265717569732E00566512
:1008600075696C6C657A20642761626F7264206CB4
:10087000616E636572206C612063616C6962726194
:1008800074696F6E2058595A2E00506C61717565ED
:1008900020252E37730A5A206F66667365743A20D6
:1008A000252B312E33666D6D0A2563436F6E746997
:1008B0006E7565720A25635265696E697469616C4B
:1008C000697365720043686F697820647520666992
:1008D0006C616D656E743A003E416E6E756C65724A
:1008E000004C616E63656D656E74206465206C27D5
:1008F000417373697374616E74207375707072697B
:100900006D657261206C657320726573756C7461BE
:1009100074732061637475656C7320646520636112
:100920006C6962726174696F6E20657420636F6DAB
:100930006D656E63657261206475206465627574AF
:100940002E20436F6E74696E7565723F005072653C
:10095000636861756666616765206465206C612007
:10096000627573652E204D65726369206465207021
:10097000617469656E7465722E00566575696C6C7C
:10098000657A20696E7365726572206C6520666990
:100990006C616D656E742064616E73206C27657880
:1009A000747275646575722C20707569732061703E
:1009B000707579657A20737572206C6520626F7529
:1009C000746F6E20706F7572206C65206368617241
:1009D0006765722E00496E7365726572206C6520C2
:1009E00066696C616D656E742064616E73206C6500
:1009F000207072656D69657220747562652064751A
:100A0000204D4D552C20707569732061707075797B
:100A1000657A20737572206C6520626F75746F6ED5
:100A200020706F7572206C652063686172676572F3
:100A30002E004C27696D7072696D616E746520635C
:100A40006F6D6D656E63657261206120696D707296
:100A5000696D657220756E65206C69676E652065CD
:100A60006E207A69672D7A61672E20546F75726ED9
:100A7000657A206C6520626F75746F6E206A75737D
:100A8000717527612061747465696E647265206C8C
:100A9000612068617574657572206F7074696D612D
:100AA0006C652E20436F6E73756C74657A206C656F
:100AB000732070686F746F732064616E73206C654F
:100AC000206D616E75656C2E0053656C656374698D
:100AD0006F6E6E657A206C612074656D70657261F1
:100AE000747572652071756920636F7272657370B9
:100AF0006F6E64206120766F747265206D6174651D
:100B0000726961752E0043686F6973697373657AE2
:100B100020756E2066696C616D656E7420706F75EE
:100B200072206C612043616C6962726174696F6EDE
:100B3000206465206C61205072656D696572652066
:100B4000436F756368652065742073656C656374B5
:100B5000696F6E6E657A2D6C652064616E73206CB2
:100B600065206D656E752E004D61696E74656E61F0
:100B70006E74206A6520766169732063616C6962B6
:100B8000726572206C612064697374616E636520A4
:100B9000656E747265206465206C61206275736592
:100BA000206574206C6120737572666163652064D2
:100BB0007520706C61746561752E00436F6E73757E
:100BC0006C74657A206E6F747265206D616E7565E8
:100BD0006C20657420646520636F7272696765724A
:100BE000206C652070726F626C656D652E20506F91
:100BF000757273756976657A20616C6F7273206C9B
:100C000027617373697374616E7420656E207265F9
:100C100064656D617272616E74206C27696D7072AB
:100C2000696D616E74652E00546F75742065737400
:100C300020707265742E20426F6E6E6520696D7033
:100C400072657373696F6E2100566F757320706FD4
:100C50007576657A20746F756A6F75727320726528
:100C60006C616E636572206C274173736973746184
:100C70006E742064616E732043616C69627261748A
:100C8000696F6E203E20417373697374616E742EB8
:100C900000536920766F7573206176657A2064272A
:100CA00061757472657320666575696C6C65732017
:100CB000642761636965722C2063616C6962726587
:100CC0007A206C65757273207072652D7265676C21
:100CD000616765732064616E73205265676C61673C
:100CE0006573202D20436F6E666967204857202D5D
:100CF00020506C6171756520656E20616369657255
:100D00002E004E6574746F79657A206C6120706C6A
:100D10006171756520656E20616369657220657417
:100D2000206170707579657A20737572206C65200A
:100D3000626F75746F6E2E00566F756C657A2D76C6
:100D40006F75732072656661697265206C276574C2
:100D500061706520706F7572207265616A75737459
:100D60006572206C61206861757465757220656EAE
:100D7000747265206C612062757365206574206CE7
:100D80006520706C61746561753F0053656C6563C7
:100D900074696F6E6E657A206C612074656D706524
:100DA0007261747572652064652070726563686134
:100DB000756666616765206465206C612062757385
:100DC000652071756920636F72726573706F6E64F0
:100DD000206120766F747265206D6174657269613F
:100DE000752E0046696C2E206573742D696C206326
:100DF00068617267653F004D61696E74656E616E12
:100E000074206A6520766169732070726563686119
:100E10007566666572206C61206275736520706FFF
:100E2000757220647520504C412E004A6520766111
:100E30006973206D61696E74656E616E74206C619A
:100E40006E636572206C612063616C6962726174AB
:100E5000696F6E205A2E005265746972657A206D32
:100E600061696E74656E616E74206C27696D707255
:100E7000657373696F6E2064652074657374206494
:100E800065206C6120706C6171756520656E2061F4
:100E9000636965722E005265746972657A206427F1
:100EA00061626F7264206C65732070726F74656329
:100EB00074696F6E73206465207472616E73706FF5
:100EC00072742E004A652076616973206D61696EC7
:100ED00074656E616E74206C616E636572206C6106
:100EE0002063616C6962726174696F6E2058595A2F
:100EF0002E2043656C612070657574207072656E7C
:100F0000647265206A757371752761203234206DB3
:100F1000696E2E004A652076616973206C616E638C
:100F20006572206C65204175746F2D746573742033
:100F3000706F7572207665726966696572206C657E
:100F4000732070726F626C656D65732064276173C6
:100F500073656D626C616765206C657320706C757C
:100F60007320636F6D6D756E732E00426F6E6A6FC6
:100F700075722C206A65207375697320766F7472A0
:100F80006520696D7072696D616E7465204F72695C
:100F900067696E616C2050727573612069332E2011
:100FA000566F756C657A2D766F7573207175652037
:100FB0006A6520766F757320677569646520646162
:100FC0006E73206C652070726F6365737375732028
:100FD0006427696E7374616C6C6174696F6E3F0035
:100FE000426F6E6A6F75722C206A65207375697323
:100FF00020766F74726520696D7072696D616E74B0
:1010000065204F726967696E616C205072757361FB
:101010002069332E204A65207661697320766F75CA
:10102000732067756964657220617520636F7572DE
:1010300073206427756E20627265662070726F631C
:101040006573737573206465207265676C6167658D
:101050002C20717569207065726D657474726120E1
:1010600064652063616C6962726572206C65205AE8
:101070002D617869732E2041707265732063656CF1
:10108000612C20746F7574207365726120707265B5
:101090007420706F757220696D7072696D65722E43
:1010A00000436F757065757200566974657373657A
:1010B0002076656E742E00506C6174656175005603
:1010C000657269662076656E742E004D6F64656C7E
:1010D00065005374726963746500417665727400CB
:1010E0004275736500566572696669636174696FFC
:1010F0006E73004469616D2E2062757365004175E1
:1011000063756E00547269004865757265004361CD
:101110007274652053440043686F69736972206C70
:10112000616E677565004368616E67656D656E74B5
:10113000206465206275736500436F6E6669672081
:101140004857004573736169206465206368617264
:1011500067652E0044657361637469766572206DFE
:101160006F7465757273004465706C61636572209D
:101170006C276178650043616C69622E2050494E8E
:101180004441005265696E69742E2063616C696226
:101190002E2058595A00416666696368657220625C
:1011A00075746565730043616C6962726174696F1F
:1011B0006E20504944005265676C61676520706C11
:1011C00061746561750043616C6962726572205A71
:1011D0000043616C69627265722058595A0041750A
:1011E000746F2D7465737400417373697374616EE9
:1011F0007400546F757420436861726765720052A1
:1012000065746972657A20696D6D6564696174657C
:101210006D656E74206C652066696C616D656E74B9
:10122000005265696E697469616C69736572005218
:10123000656E6F6D6D65720043616C2E2031657255
:101240006520636F756368650053656C65637469D9
:101250006F6E6E657200506C617175657320656E9E
:1012600020616369657200537461742E2064276580
:1012700063686563204D4D550053746174697374E0
:10128000697175657300436861726765722066698C
:101290006C616D656E740044656368617267657248
:1012A0002066696C2E0043686172676572206C610C
:1012B00020627573650050726563686172676520AE
:1012C00061204D4D5500506173206465206361724B
:1012D000746520534400496D70722E2064657075EA
:1012E0006973206C612053440052657072697365A4
:1012F00020696D7072657373696F6E0050617573EC
:1013000065206465206C27696D70722E00507265CF
:10131000636861756666616765005265676C6572D2
:1013200000416A7573746572205A20656E20646985
:10133000722E00456372616E206427696E666F00CD
:101340003120666F697300536F6E00466F727400D0
:101350004368616E6765722066696C616D656E7465
:1013600000466C7578005669746573736500436F49
:101370006D70656E732E2061696D2E00492F4400DB
:101380004D65737572657220782D666F69730052B2
:1013900065676C61676573004F7569004E6F6E001D
:1013A0004172726574657220696D707265737369DC
:1013B0006F6E00566572696669632E2066696368A0
:1013C000696572004669636869657220696E636F5A
:1013D0006D706C65742E20436F6E74696E756572E6
:1013E000207164206D656D653F0004526166726115
:1013F0006963686972004D656E75207072696E630D
:101400006970616C00417474656E74652064752048
:10141000726566726F6964697373656D656E742059
:10142000646573206275736520657420706C6174E7
:10143000656175004175746F2D74657374204F4B31
:10144000004465627574206175746F2D74657374E2
:1014500000506F756C6965206C616368650042754A
:10146000746565206E6F6E2061747465696E746555
:10147000004275746565004D6F7465757200427544
:1014800074656573004572726575722064652063CA
:1014900061626C61676500506C61746561752F43B2
:1014A0006861756666616765004E6F6E20636F6E7A
:1014B0006E65637465004368617566666167652F74
:1014C000546865726D6973746F72005665726966EF
:1014D00069657A3A00457272657572206175746F3C
:1014E0002D746573742100436170746575722046B4
:1014F000696C2E0056656E742E20696D70723A000C
:1015000056656E742E20686F74656E643A00436190
:101510006C69622E206D697365206120300045631F
:10152000686563206465206C276175746F2D746530
:10153000737400546F75742065737420636F7272D6
:101540006563740056657269662E20646573206356
:10155000617074657572730056657269662E2064D9
:101560007520686F74656E640056657269662E201A
:10157000706C617465617500566572696669632E89
:1015800020617865205A00566572696669632E206D
:10159000617865205900566572696669632E20611D
:1015A0007865205800566572696669632E206275F9
:1015B0007465657300436172746520726574697245
:1015C0006565005265746F75720050756973732E8E
:1015D0006175746F00467572746966004861757450
:1015E0002E707569737300486F74656E6420612096
:1015F00032383043212042757365206368616E671D
:101600006565206574207265737365727265652007
:101610006175782073706563696669636174696F69
:101620006E733F00506F757220756E206368616E37
:1016300067656D656E7420646520627573652C2026
:101640006C6972650A70727573612E696F2F6E6FA7
:101650007A7A6C652D6D6B33730043616C69622E11
:1016600020504944207465726D696E656500436160
:101670006C69622E2050494400496D707265737325
:10168000696F6E20656E20706175736500496D70BD
:1016900072657373696F6E20616E6E756C6565003F
:1016A000436F70696572206C61206C616E6775654F
:1016B0002063686F697369653F004469616D657493
:1016C0007265206465206C612062757365206469B1
:1016D000666665726520647520472D436F64652ECC
:1016E00020436F6E74696E7565723F004469616D69
:1016F00065747265206465206C6120627573652075
:101700006469666665726520647520472D436F6461
:10171000652E20566572696669657A206C6120764F
:10172000616C6575722E20496D7072657373696F97
:101730006E20616E6E756C65652E00496C20666169
:10174000757420746F756A6F75727320656666654F
:101750006374756572206C612043616C69627261AB
:1017600074696F6E205A2E20537569767265206CED
:1017700065206D616E75656C2C206368617069749D
:101780007265205072656D69657273207061732097
:101790002D2050726F6365737375732064652063C9
:1017A000616C6962726174696F6E2E004C27696D9D
:1017B0007072696D616E7465206E2761207061734F
:1017C00020656E636F7265206574652063616C6966
:1017D000627265652E2053756976657A206C652086
:1017E0006D616E75656C2C206368617069747265DB
:1017F000205072656D6965727320706173202D20B1
:1018000050726F6365737375732064652063616CD8
:101810006962726174696F6E2E004C652053656C4D
:1018200066746573742073657261206C616E6365A4
:1018300020706F75722063616C6962726572206CD2
:10184000612072656D6973652061207A65726F2011
:10185000707265636973652073616E732063617074
:101860007465757200416E6369656E732072656799
:101870006C616765732074726F757665732E204C8A
:1018800065205049442C206C657320457374657045
:1018900073206574632E20706172206465666175C3
:1018A00074207365726F6E74207265676C65730067
:1018B000417474656E74696F6E3A20547970657303
:1018C000206427696D7072696D616E74652065743E
:1018D000206465206361727465206D657265206D9A
:1018E0006F64696669657300417474656E74696FCD
:1018F0006E3A2054797065206427696D7072696D45
:10190000616E7465206D6F64696669650041747409
:10191000656E74696F6E3A20547970652064652035
:101920006361727465206D657265206D6F646966B0
:1019300069652E00546573742064752066696C6156
:101940006D656E7400506C61717565004E65207434
:101950006F75726E652070617300546F75726E657D
:101960000056656E74696C6F206761756368653FCA
:101970000056656E74696C6F20696D7072206176B7
:10198000616E743F00546573742064752076656ED3
:1019900074696C61746575720043616C696272612F
:1019A00074696F6E2058595A204F4B2E204C276572
:1019B00063617274207365726120636F727269670C
:1019C00065206175746F6D6174697175656D656EA3
:1019D000742E0043616C6962726174696F6E205885
:1019E000595A204F4B2E204C657320617865732027
:1019F000582F5920736F6E74206C65676572656D22
:101A0000656E74206E6F6E2070657270656E6469AD
:101A100063756C61697265732E20426F6E20626F10
:101A2000756C6F74210043616C6962726174696FD7
:101A30006E2058595A204F4B2E204C6573206178E8
:101A4000657320582F5920736F6E74207065727003
:101A5000656E646963756C61697265732E20466595
:101A60006C696369746174696F6E73210043616CA2
:101A70006962726174696F6E2058595A20636F6D84
:101A800070726F6D6973652E204C6520706F696E82
:101A9000742064652063616C6962726174696F6E41
:101AA000206176616E742064726F6974206E2765A0
:101AB000737420706173206174746569676E61620C
:101AC0006C652E0043616C6962726174696F6E208F
:101AD00058595A20636F6D70726F6D6973652E204F
:101AE0004C657320706F696E747320646520636148
:101AF0006C6962726174696F6E20656E20617661D7
:101B00006E74206E6520736F6E7420706173206137
:101B100074746569676E61626C65732E00456368F5
:101B200065632063616C6962726174696F6E2058CD
:101B3000595A2E204C6520706F696E7420646520A0
:101B400063616C6962726174696F6E206176616E47
:101B5000742064726F6974206E27657374207061DD
:101B600073206174746569676E61626C652E0045EF
:101B7000636865632063616C6962726174696F6E2A
:101B80002058595A2E204C657320706F696E7473FB
:101B90002064652063616C6962726174696F6E2094
:101BA000656E206176616E74206E6520736F6E7451
:101BB00020706173206174746569676E61626C6521
:101BC000732E0045636865632063616C69627261AE
:101BD00074696F6E2058595A2E20436F6E73756C5E
:101BE00074657A206C65206D616E75656C2E00459C
:101BF000636865632063616C6962726174696F6EAA
:101C00002058595A2E204C6520706F696E742064DC
:101C1000652063616C6962726174696F6E206475BE
:101C200020706C6174656175206E2761207061732E
:101C3000206574652074726F7576652E00506C6136
:101C400063657A206C6120706C6171756520656ECA
:101C500020616369657220737572206C6520706CF9
:101C600061746561752E004C612064697374616EE6
:101C7000636520656E747265206465206C61206206
:101C800075736520657420647520706C617465617E
:101C900075206E27612070617320656E636F7265B9
:101CA00020657465207265676C65652E20537569C3
:101CB00076657A206C65206D616E75656C2C20638D
:101CC0006861702E205072656D6965727320706155
:101CD000732E00506C6163657A20756E65206665B1
:101CE00075696C6C6520646520706170696572202F
:101CF000736F7573206C6120627573652070656EFB
:101D000064616E74206C612063616C6962726174DD
:101D1000696F6E206465732034207072656D69652B
:101D2000727320706F696E74732E205369206C611A
:101D3000206275736520616363726F636865206CF0
:101D400065207061706965722C2065746569676EC5
:101D5000657A2076697465206C27696D7072696D8B
:101D6000616E74652E005265746972657A206C61CB
:101D700020706C6171756520656E206163696572A4
:101D800020647520706C61746561752E00457374F4
:101D9000206C6120706C6171756520737572206CA8
:101DA0006520706C61746561753F0052656368659C
:101DB0007263686520706F696E742063616C69621C
:101DC000726174696F6E20647520706C61746561F6
:101DD00075004A65206D6573757265206C612068B9
:101DE00061757465757220646520726566657265DB
:101DF0006E636520647520706F696E742064652061
:101E000063616C696272616765004E6574746F79B5
:101E1000657A206C61206275736520706F75722021
:101E20006C612063616C6962726174696F6E2E20EF
:101E3000436C697175657A20756E6520666F69738C
:101E400020666169742E004D697365206120302021
:101E5000646573206178657300556E6520657272E4
:101E600065757220696E617474656E647565207342
:101E7000276573742070726F64756974652E0043F2
:101E800068616E67656D656E742064652066696C57
:101E9000616D656E74204D3630302E20436861725E
:101EA00067657A20756E206E6F7576656175206640
:101EB000696C616D656E74206F7520656A65637409
:101EC000657A206C27616E6369656E2E00526574B9
:101ED0006972657A206C652066696C616D656E74E7
:101EE00020656A65637465206465206C276176618E
:101EF0006E74206465206C61204D4D552E0046693E
:101F00006C616D656E7420646574656374652064CE
:101F100065206D616E6965726520696E61747465B6
:101F20006E6475652E204173737572657A2D766FB8
:101F3000757320717527617563756E2066696C61B4
:101F40006D656E74206E27657374206368617267B7
:101F5000652E20566572696669657A206C65732006
:101F60006361707465757273206574206C6520639D
:101F700061626C6167652E004572726575722064DE
:101F800027657865637574696F6E20696E74657214
:101F90006E652E204573736179657A2064652072C1
:101FA00065696E697469616C69736572204D4D5520
:101FB000206F75206465206D6574747265206120E2
:101FC0006A6F7572206C652046572E004C61207632
:101FD000657273696F6E206475204D4D5520657371
:101FE0007420696E636F6D70617469626C652061E5
:101FF000766563206C65204657206465206C2769F0
:102000006D7072696D616E74652E204D6973652007
:1020100061206A6F75722076657273206C6120761C
:10202000657273696F6E20332E302E312E0045722B
:102030007265757220696E7465726E6520647520B4
:102040004657206475204D4D552C207265696E6988
:102050007469616C69736572206C65204D4D552EF5
:10206000004C276F7574696C2064652066696C612B
:102070006D656E742064656D616E6465206E2765A4
:1020800073742070617320646973706F6E69626C21
:102090006520737572206365206D61746572696176
:1020A000752E205265636865726368657A20646185
:1020B0006E73206C6520472D636F646520756E20FC
:1020C000696E6465782064276F7574696C20686F29
:1020D000727320706C616765202854302D54342948
:1020E0002E00496D706F737369626C65206427659B
:1020F0006666656374756572206C27616374696FC9
:102100006E2C206C652066696C616D656E7420654F
:1021100073742064656A61206368617267652E204C
:1021200044656368617267657A2D6C652064276118
:10213000626F72642E004D4D55206E652072657081
:102140006F6E642070617320636F72726563746573
:102150006D656E742E20566572696669657A206CAD
:1021600065206361626C616765206574206C6573CE
:1021700020636F6E6E656374657572732E004D4DCE
:1021800055206E65207265706F6E64207061732ECD
:1021900020566572696669657A206C6520636162A4
:1021A0006C616765206574206C657320636F6E6E6B
:1021B000656374657572732E00506C757320646569
:1021C0002064657461696C7320656E206C69676E4C
:1021D000652E004C2749646C6572206E6520706521
:1021E000757420706173207365206D6574747265F9
:1021F00020636F7272656374656D656E7420612013
:102200007A65726F2E20566572696669657A2073E9
:1022100027696C207920612071756F69207175655F
:1022200020636520736F69742071756920626C6F1B
:1022300071756520736F6E206D6F7576656D656E57
:10224000742E00496D706F737369626C65206465EC
:10225000206465706C61636572206C652053656CE9
:10226000656374657572206F75206C2749646C65B1
:10227000722E004C652073656C6563746575722001
:102280006E65207065757420706173207365206DB4
:10229000657474726520636F7272656374656D65D1
:1022A0006E742061207A65726F2E205665726966A1
:1022B00069657A207327696C207920612071756FB8
:1022C000692071756520636520736F69742071756D
:1022D0006920626C6F71756520736F6E206D6F750C
:1022E00076656D656E742E004C652063686172675B
:1022F000656D656E742064616E73206C27657874FB
:10230000727564657573652061206563686F7565B6
:102310002E20496E7370656374657A206C61206647
:102320006F726D65206465206C6120706F696E74DA
:10233000652064752066696C616D656E742E204140
:102340006666696E6572206C276574616C6F6E6E6F
:1023500061676520647520636170746575722C20F7
:102360007369206E6563657373616972652E004CD5
:10237000652073656C656374657572206E65207089
:102380006575742070617320626F75676572206374
:1023900061722046494E44412064657465637465EA
:1023A00020756E2066696C616D656E742E204173B8
:1023B000737572657A2D766F7573207175276175E7
:1023C00063756E2066696C2E206E276573742064B9
:1023D000616E73206C652073656C656374657572DE
:1023E000206574207175652046494E444120666F12
:1023F0006E6374696F6E6E6520636F72726563746D
:10240000656D656E742E004361707465757220642D
:102410006520662E206465636C656E636865207454
:10242000726F7020746F74206C6F727320647520EB
:102430006368617267656D656E742064616E732098
:102440006C276578747275646575722E2056657296
:10245000696669657A206C652074756265205054E0
:1024600046452E20566572696669657A20717565E4
:10247000206C65206361707465757220666F6E6391
:1024800074696F6E6E652E004C65206D6F74657596
:1024900072206465206C6120706F756C69652073B3
:1024A0002765737420626C6F7175652E204173739C
:1024B0007572657A2D766F757320717565206C6104
:1024C00020706F756C6965207065757420626F751A
:1024D00067657220657420766572696669657A2021
:1024E0006C65206361626C6167652E004361707486
:1024F00065757220646520662E206E6F6E2064659F
:1025000073616374697665206C6F727320647520E3
:1025100064656368617267656D656E7420647520BB
:1025200066696C616D656E742E204173737572659A
:102530007A2D766F757320717565206C65206669DC
:102540006C616D656E74207065757420626F75675F
:10255000657220657420717565206C6520636170FB
:102560007465757220666F6E6374696F6E6E652E2A
:10257000004361707465757220646520662E206E5C
:102580006F6E206465636C656E636865206C6F7246
:1025900073206475206368617267656D656E742071
:1025A00064752066696C616D656E742E204173736D
:1025B0007572657A2D766F757320717565206C65FF
:1025C0002066696C616D656E74206120617474654C
:1025D000696E74206C652063617074657572206625
:1025E00020657420717565206C6520636170746569
:1025F000757220666F6E6374696F6E6E652E00462D
:10260000494E4441206E6F6E206465736163746946
:10261000766565206C6F72732064752064656368ED
:10262000617267656D656E742064752066696C61A2
:102630006D656E742E204573736179657A206465CB
:10264000206465636861726765722061206C612037
:102650006D61696E2E204173737572657A2D766F88
:10266000757320717565206C652066696C616D6598
:102670006E74207065757420626F75676572206571
:102680007420717565206C612046494E4441206676
:102690006F6E6374696F6E6E652E004C61204649E3
:1026A0004E4441206E6520732765737420706173FA
:1026B000206465636C656E63686565206C6F72731A
:1026C000206475206368617267656D656E7420644F
:1026D000752066696C616D656E742E20417373752B
:1026E00072657A2D766F757320717565206C652023
:1026F00066696C616D656E74207065757420626FBB
:102700007567657220657420717565206C6120465F
:10271000494E444120666F6E6374696F6E6E652E1C
:10272000004465736163742E00456A656374657265
:10273000004368617267657200446563682E0052E9
:1027400065662E00436170742E206E6F6E20646586
:10275000636C656E6368652070656E64616E74207D
:10276000717565206A65206E6976656C65206C659B
:1027700020706C61746561752E20446562726973A6
:102780002073757220627573653F20456E206174F9
:1027900074656E7465206427756E20726573657448
:1027A0002E0053656E736962696C697465004661D9
:1027B00069740052657072697365206465206C27C6
:1027C000696D70722E004368617566666520646588
:1027D000206C612050494E44410043616C69627233
:1027E0006174696F6E207465726D696E6565004312
:1027F000616C6962726174696F6E205A00506C611D
:1028000074656175207465726D696E6500436861F9
:102810007566666520647520706C6174656175000D
:1028200043686175666665207465726D696E65657D
:102830002E004368617566666500546F74616C654F
:10284000004465726E6965726520696D70726573AA
:102850002E00456368656373206465726E696572F6
:102860006520696D702E00546F74616C206465730F
:102870002065636865637300456368656373204D15
:102880004D55004465662E2063686172672E204DA9
:102890004D55004465662E20616C696D2E204D4DAE
:1028A00055004368616E676573206D617465726978
:1028B000656C7300496E666F206361707465757234
:1028C00000496E666F732065787472756465757201
:1028D0000044657461696C732063616C69622E20C9
:1028E00058595A004164722E495020696D707269BE
:1028F0006D616E74653A00696E636F6E6E75004D42
:102900004D5520636F6E6E6563746500706F7572F0
:10291000206465636861726765722066696C2E0069
:10292000706F75722063686172676572206C6520D4
:1029300066696C2E004170702E207375722073755D
:102940007220626F75746F6E0043686175666665AC
:1029500020706F757220636F7570657200436861D7
:1029600075662E20706F75722072656D6F6E74655E
:10297000720043686175662E706F757220646563BE
:10298000686172676572004368617566666520708C
:102990006F75722063686172676572005265667256
:1029A0006F6964697373656D656E740046696C6107
:1029B0006D656E7420657874727564652065742029
:1029C0006176656320626F6E6E6520636F756C65FE
:1029D00075723F0046696C616D656E74207574692F
:1029E0006C6973650054656D7073206427696D7040
:1029F00072657373696F6E0046696C616D656E74A4
:102A000020746F74616C0054656D707320746F7402
:102A1000616C20696D70722E00507265636861751B
:102A20006666657A206C6120627573652100455287
:102A3000524555523A0044697374616E636520597A
:102A4000206475206D696E00476175636865004498
:102A5000726F697465005661722E206D65737572B0
:102A60006565004465766961742E6C65672E004467
:102A700065766961742E7365762E004F66667365A0
:102A80007420706F696E74205B303B305D00416A6A
:102A90007573746572205A0041727269657265209F
:102AA0005BE46D5D004176616E74205BE46D5D00FA
:102AB00044726F697465205BE46D5D004761756306
:102AC0006865205BE46D5D005265676C657220741B
:102AD000656D702E3A005A7E636172726961676536
:102AE0007320676175636865202B2064726F697459
:102AF0006520746F757420656E20686175743F0081
:102B000043616C6962726174696F6E2064652058FC
:102B1000595A2E20546F75726E657A206C6520624A
:102B20006F75746F6E20706F757220666169726563
:102B3000206D6F6E746572206C2765787472756491
:102B40006575722064616E73206C27617865205A08
:102B5000206A757371752761757820627574656573
:102B6000732E20436C697175657A20756E652066D9
:102B70006F697320666169742E0043616C696272CB
:102B80006174696F6E206465205A2E20546F7572CF
:102B90006E657A206C6520626F75746F6E20706F41
:102BA0007572206661697265206D6F6E7465722042
:102BB0006C276578747275646575722064616E73D4
:102BC000206C27617865205A206A757371752761BA
:102BD0007578206275746565732E20436C69717514
:102BE000657A20756E6520666F6973206661697409
:102BF0002E004563686563206465206C6120636115
:102C00006C6962726174696F6E20656E2050494E06
:102C10004441004C612063616C6962726174696F48
:102C20006E20656E2050494E4441206573742074B7
:102C300065726D696E65652065742061637469767F
:102C400065652E20496C2070657574206574726509
:102C500020646573616374697665652064616E7371
:102C6000206C65206D656E75205265676C616765C7
:102C7000732D3E2043616C69622E2050494E4441C1
:102C800000457874727564657572004465706C6196
:102C9000636572205A004465706C616365722059E7
:102CA000004465706C61636572205800436861720E
:102CB000672E7420762E20436170746575722046ED
:102CC000004465706C6163656D656E742073656C3E
:102CD0006563742E004D6973652061207A65726F9B
:102CE0000052657472616374696F6E20646520467A
:102CF000494E4441004C652066696C2E2072656D1A
:102D00006F6E7465005061727175616765207365DF
:102D10006C656374657572005265746F75726E656B
:102D20006D656E742073656C6563742E00436F75FA
:102D3000706520656E20636F757273004368617201
:102D400067656D656E742066696C616D656E740093
:102D50005072657061726174696F6E206C616D652F
:102D60000053656C656374696F6E206475206669D5
:102D70006C2E0044656368617267656D656E7420D2
:102D800066696C2E00455252204563686563205485
:102D90004D43004552522041696465722066696C5A
:102DA000616D656E740045525220496E7465726E95
:102DB0006500455252204174742E205574696C6927
:102DC000736174657572004D6F7576656D656E74AF
:102DD0002066696E616C0045766974657220627266
:102DE0006F69656D656E74004368617267656D65D6
:102DF0006E74207665727320627573650043686136
:102E000072672E74207665727320657874727564AB
:102E10002E004368617267656D2E7420766572734B
:102E20002046494E4441004465636861722E742017
:102E30007665727320706F756C69650044656368B0
:102E40006172672E7420766572732046494E444144
:102E500000446573656E67612E74206465206C277D
:102E600069646C657200456E676167656D2E7420DC
:102E70006465206C2769646C657200455252455543
:102E80005220494E434F4E4E5545004348414E4710
:102E9000454D454E542044452046494C414D2E0059
:102EA00046494C414D454E5420454A454354450002
:102EB000444543484152474552204D414E55454CAB
:102EC0002E540045525245555220455845435554BD
:102ED000494F4E204657004D414A204657204D4D00
:102EE00055204E45434553532E0046494C452050EE
:102EF0004C45494E45004F5554494C20494E56418A
:102F00004C4944450046494C414D454E54204445AA
:102F10004A41204348415247450045525245555287
:102F200020434F4D4D554E49434154494F4E004C5F
:102F300045204D4D55204E45205245504F4E442082
:102F4000504153004D4D55204D435520455252455B
:102F50005552004D4D55204155544F2D5445535415
:102F600020454348454300434320445520445249AB
:102F700056455220544D430045525220534F55530D
:102F80002054454E53494F4E20544D43005245491D
:102F90004E49542044552044524956455220544DE0
:102FA00043004552524555522044552044524956FB
:102FB000455220544D4300455252205355524348E8
:102FC000415546464520544D430041545420544DEC
:102FD000432054524F5020434841554400454348F4
:102FE0004543204D4F55562E542049444C455200E0
:102FF00052415A2049444C455220494D504F535359
:1030000049424C45004543484543204D4F55562EB7
:10301000542053454C4543542E00454348454320D6
:1030200052415A2053454C4543544555520045435F
:10303000484F554520434841524745204120455877
:10304000545200494E535045435445522046494E30
:103050004441004341505445555220462054524F5C
:103060005020544F54004543484543204D4F55563A
:103070002E5420504F554C4945004341505445551E
:103080005220463A20462E20424C4F51554500438F
:1030900041505445555220462E204E4F4E20444517
:1030A000434C2E0046494E44412046494C414D2E4A
:1030B00020424C4F5155450046494E4441204E4F09
:1030C0004E204445434C454E4348454500436F75AB
:1030D00070652066696C616D656E7400456A656334
:1030E000746572206475204D4D55004368617267A8
:1030F000656D656E742064752066696C2E004E6F78
:103100007576656C6C652074656E7461746976653E
:10311000204D4D553A205265737461757261746922
:103120006F6E206465206C612074656D70657261DE
:10313000747572652E2E2E0054726920646573209A
:103140006669636869657273004365727461696E6C
:1031500073206669636869657273206E65207365A4
:10316000726F6E74207061732074726965732E20A3
:103170004D6178203130302066696368696572730B
:103180002074726965732070617220646F73736953
:1031900065722E004152524554452E000000000039
:1031A000000000000000000000000000000000001F
:1031B000000000000000000000000000000000000F
:1031C00000000000000000000000000000000000FF
:1031D00000000000000000000000000000000000EF
:103600000000536F6D652070726F626C656D206590
:103610006E636F756E74657265642C205A2D6C65CF
:1036200076656C696E6720656E666F72636564208F
:103630002E2E2E00010048656174696E6720646952
:103640007361626C65642062792073616665747968
:103650002074696D65722E000200472D636F6465EA
:1036600020736C6963656420666F722061206469F1
:1036700066666572656E74206C6576656C2E204397
:103680006F6E74696E75653F000300472D636F644C
:103690006520736C6963656420666F7220612064C5
:1036A0006966666572656E74206C6576656C2E2041
:1036B000506C656173652072652D736C696365205C
:1036C000746865206D6F64656C20616761696E2E3A
:1036D000205072696E742063616E63656C6C656402
:1036E0002E000400472D636F646520736C69636569
:1036F0006420666F722061206E657765722066694E
:10370000726D776172652E20436F6E74696E756598
:103710003F000500472D636F646520736C69636526
:103720006420666F722061206E657765722066691D
:10373000726D776172652E20506C656173652075BE
:10374000706461746520746865206669726D776164
:1037500072652E205072696E742063616E63656CB1
:103760006C65642E000600472D636F646520736CE2
:103770006963656420666F722061206469666665AE
:1037800072656E74207072696E74657220747970DF
:10379000652E20436F6E74696E75653F00070047A4
:1037A0002D636F646520736C6963656420666F7256
:1037B000206120646966666572656E742070726946
:1037C0006E74657220747970652E20506C6561731B
:1037D000652072652D736C69636520746865206D62
:1037E0006F64656C20616761696E2E205072696E2E
:1037F000742063616E63656C6C65642E0008005014
:103800007265737320746865206B6E6F6220746FCD
:103810002070726568656174206E6F7A7A6C6520BD
:10382000616E6420636F6E74696E75652E000900A9
:10383000506C656173652070726573732074686580
:10384000206B6E6F6220746F20756E6C6F616420E8
:1038500066696C616D656E74000A00616E6420704B
:103860007265737320746865206B6E6F62000B0065
:10387000496E736572742066696C616D656E740063
:103880000C00436F6C6F72206E6F7420636F7272E6
:10389000656374000D0046696C616D656E74206E21
:1038A0006F74206C6F61646564000E004368616E24
:1038B00067656420636F72726563746C793F000F93
:1038C000004C6F6164696E6720636F6C6F720010EB
:1038D000004368616E676520737563636573732168
:1038E000001100506C65617365206F70656E206912
:1038F000646C657220616E642072656D6F76652000
:1039000066696C616D656E74206D616E75616C6C5D
:10391000792E0012005761732066696C616D656EC7
:103920007420756E6C6F6164207375636365737367
:1039300066756C3F001300506C656173652075708F
:1039400067726164652E0014004E657720666972A7
:103950006D776172652076657273696F6E2061762E
:1039600061696C61626C653A001500576169746940
:103970006E6720666F722050494E44412070726F0E
:10398000626520636F6F6C696E67001600506C652E
:1039900061736520776169740017004E6F206D6F49
:1039A00076652E0018005761697420666F72207565
:1039B0007365722E2E2E001900537461626C65209F
:1039C000616D6269656E742074656D706572617495
:1039D0007572652032312D323643206973206E6551
:1039E000656465642061207269676964207374612D
:1039F0006E642069732072657175697265642E004A
:103A00001A00506C656173652072756E2058595AA2
:103A10002063616C6962726174696F6E206669729D
:103A200073742E001B00536865657420252E377350
:103A30000A5A206F66667365743A20252B312E333F
:103A4000666D6D0A2563436F6E74696E75650A2530
:103A5000635265736574001C0053656C6563742064
:103A600066696C616D656E743A001D0046696C6133
:103A70006D656E74001E003E43616E63656C001FD1
:103A80000052756E6E696E672057697A61726420A4
:103A900077696C6C2064656C6574652063757272FF
:103AA000656E742063616C6962726174696F6E2007
:103AB000726573756C747320616E642073746172C7
:103AC000742066726F6D2074686520626567696E28
:103AD0006E696E672E20436F6E74696E75653F0068
:103AE000200050726568656174696E67206E6F7A38
:103AF0007A6C652E20506C656173652077616974FE
:103B00002E002100506C6561736520696E736572CB
:103B1000742066696C616D656E7420696E746F20C7
:103B20007468652065787472756465722C20746899
:103B3000656E20707265737320746865206B6E6F9C
:103B40006220746F206C6F61642069742E00220003
:103B5000506C6561736520696E7365727420666967
:103B60006C616D656E7420696E746F207468652079
:103B700066697273742074756265206F662074685C
:103B800065204D4D552C207468656E2070726573EC
:103B90007320746865206B6E6F6220746F206C6F89
:103BA00061642069742E0023005468652070726976
:103BB0006E7465722077696C6C2073746172742006
:103BC0007072696E74696E672061207A69672D7AF8
:103BD0006167206C696E652E20526F746174652078
:103BE000746865206B6E6F6220756E74696C2079E5
:103BF0006F7520726561636820746865206F7074EA
:103C0000696D616C206865696768742E204368651A
:103C1000636B2074686520706963747572657320C6
:103C2000696E207468652068616E64626F6F6B20D6
:103C30002843616C6962726174696F6E20636861A8
:103C400070746572292E00240053656C65637420BE
:103C500074656D70657261747572652077686963EB
:103C600068206D61746368657320796F7572206D6B
:103C70006174657269616C2E00250053656C656323
:103C80007420612066696C616D656E7420666F7268
:103C900020746865204669727374204C617965727E
:103CA0002043616C6962726174696F6E20616E6439
:103CB0002073656C65637420697420696E20746874
:103CC00065206F6E2D73637265656E206D656E7510
:103CD0002E0026004E6F7720492077696C6C206398
:103CE000616C6962726174652064697374616E638A
:103CF00065206265747765656E20746970206F66F3
:103D000020746865206E6F7A7A6C6520616E64201D
:103D10006865617462656420737572666163652E9F
:103D2000002700506C6561736520636865636B20D4
:103D30006F75722068616E64626F6F6B20616E6474
:103D400020666978207468652070726F626C656D9A
:103D50002E205468656E20726573756D65207468D9
:103D6000652057697A617264206279207265626F9A
:103D70006F74696E6720746865207072696E74650F
:103D8000722E002800416C6C20697320646F6E6590
:103D90002E204861707079207072696E74696E6748
:103DA00021002900596F752063616E20616C776175
:103DB000797320726573756D652074686520576925
:103DC0007A6172642066726F6D2043616C69627201
:103DD0006174696F6E202D3E2057697A6172642E7E
:103DE000002A00496620796F752068617665206138
:103DF00064646974696F6E616C20737465656C20AE
:103E00007368656574732C2063616C696272617498
:103E100065207468656972207072657365747320BB
:103E2000696E2053657474696E6773202D2048573E
:103E3000205365747570202D20537465656C207354
:103E400068656574732E002B00506C656173652086
:103E5000636C65616E206865617462656420616E83
:103E600064207468656E2070726573732074686571
:103E7000206B6E6F622E002C00446F20796F7520CE
:103E800077616E7420746F20726570656174206C48
:103E9000617374207374657020746F20726561643F
:103EA0006A7573742064697374616E6365206265FA
:103EB000747765656E206E6F7A7A6C6520616E64CA
:103EC00020686561746265643F002D0053656C6510
:103ED0006374206E6F7A7A6C6520707265686561B4
:103EE000742074656D706572617475726520776891
:103EF000696368206D61746368657320796F75729A
:103F0000206D6174657269616C2E002E004973200A
:103F100066696C616D656E74206C6F616465643F89
:103F2000002F004E6F7720492077696C6C207072EB
:103F30006568656174206E6F7A7A6C6520666F7251
:103F400020504C412E003000492077696C6C207263
:103F5000756E207A2063616C6962726174696F6E3C
:103F6000206E6F772E0031004E6F772072656D6F77
:103F70007665207468652074657374207072696E4C
:103F8000742066726F6D20737465656C207368654C
:103F900065742E003200506C656173652072656D2A
:103FA0006F7665207368697070696E672068656CEC
:103FB000706572732066697273742E003300492035
:103FC00077696C6C2072756E2078797A2063616CE9
:103FD0006962726174696F6E206E6F772E2049740A
:103FE0002077696C6C2074616B6520757020746F2C
:103FF000203234206D696E732E003400466972736E
:10400000742C20492077696C6C2072756E2074685E
:10401000652073656C667465737420746F206368C3
:1040200065636B206D6F737420636F6D6D6F6E20B1
:10403000617373656D626C792070726F626C656D0F
:10404000732E00350048692C204920616D20796F5E
:104050007572204F726967696E616C20507275735A
:1040600061206933207072696E7465722E20576FFB
:10407000756C6420796F75206C696B65206D6520A7
:10408000746F20677569646520796F752074687234
:104090006F7567682074686520736574757020702B
:1040A000726F636573733F00360048692C204920A6
:1040B000616D20796F7572204F726967696E616CEE
:1040C000205072757361206933207072696E746557
:1040D000722E20492077696C6C20677569646520B1
:1040E000796F75207468726F7567682061207368D6
:1040F0006F72742073657475702070726F6365736E
:10410000732C20696E207768696368207468652065
:104110005A2D617869732077696C6C206265206321
:10412000616C696272617465642E205468656E2CDE
:1041300020796F752077696C6C20626520726561EB
:10414000647920746F207072696E742E003700439A
:10415000757474657200380046616E207370656511
:1041600064003900426564003A0046616E73206362
:104170006865636B003B004D6F64656C003C0053E9
:104180007472696374003D005761726E003E004EA8
:104190006F7A7A6C65003F00436865636B7300401B
:1041A000004E6F7A7A6C6520642E0041004E6F6E6F
:1041B00065004200416C70686162657400430053A1
:1041C0006F727400440054696D650045004E6F7253
:1041D0006D616C00460053442063617264004700C7
:1041E00053656C656374206C616E6775616765000B
:1041F00048004E6F7A7A6C65206368616E6765006F
:1042000049004857205365747570004A004C6F612F
:1042100064696E672054657374004B004469736170
:10422000626C65207374657070657273004C004D2C
:104230006F76652061786973004D0054656D706517
:10424000726174757265004E0050494E444120639E
:10425000616C2E004F0052657365742058595A20C6
:1042600063616C6962722E00500053686F7720653D
:104270006E642073746F7073005100504944206362
:10428000616C6962726174696F6E005200426564AC
:10429000206C6576656C20636F7272656374005381
:1042A000004D65736820426564204C6576656C69D5
:1042B0006E6700540043616C696272617465205AD4
:1042C00000550043616C6962726174652058595AE7
:1042D00000560053656C6674657374005700576927
:1042E0007A6172640058004C6F616420416C6C000C
:1042F0005900506C656173652070756C6C206F752A
:10430000742066696C616D656E7420696D6D65649D
:10431000696174656C79005A005265736574005B5D
:104320000052656E616D65005C00466972737420B1
:104330006C617965722063616C2E005D0053656C61
:10434000656374005E00537465656C207368656511
:104350007473005F00537570706F72740060004674
:1043600061696C207374617473204D4D5500610058
:104370005374617469737469637300620043616CA0
:104380006962726174696F6E0063004C6F616420D2
:1043900066696C616D656E74006400556E6C6F616A
:1043A000642066696C616D656E740065004C6F61B8
:1043B0006420746F206E6F7A7A6C650066005072AC
:1043C000656C6F616420746F204D4D550067004E21
:1043D0006F20534420636172640068005072696EFC
:1043E000742066726F6D20534400690052657375C6
:1043F0006D65207072696E74006A00506175736536
:10440000207072696E74006B00507265686561742B
:10441000006C0054756E65006D004C697665206116
:10442000646A757374205A006E00496E666F20735B
:10443000637265656E006F00417373697374007019
:10444000004F6E6365007100536F756E64007200FB
:104450004C6F75640073004368616E676520666920
:104460006C616D656E74007400466C6F770075004A
:1044700053706565640076004D61676E65747320E6
:10448000636F6D702E0077004E2F410078005A2D1B
:1044900070726F6265206E722E0079004D657368D0
:1044A000007A0053657474696E6773007B00596508
:1044B00073007C004E6F007D0053746F702070722B
:1044C000696E74007E00436865636B696E67206681
:1044D000696C65007F0046696C6520696E636F6D6D
:1044E000706C6574652E20436F6E74696E756520FF
:1044F000616E797761793F0080000452656672656C
:1045000073680081004D61696E00820057616974B3
:10451000696E6720666F72206E6F7A7A6C652061B3
:104520006E642062656420636F6F6C696E670083E0
:104530000053656C662074657374204F4B008400D3
:1045400053656C66207465737420737461727400B3
:1045500085004C6F6F73652070756C6C6579008693
:1045600000456E6473746F70206E6F742068697498
:10457000008700456E6473746F700088004D6F741F
:104580006F72008900456E6473746F7073008A00E7
:10459000576972696E67206572726F72008B004294
:1045A00065642F486561746572008C004E6F7420DD
:1045B000636F6E6E6563746564008D004865617439
:1045C00065722F546865726D6973746F72008E0026
:1045D000506C6561736520636865636B3A008F009A
:1045E00053656C6674657374206572726F72210016
:1045F000900046696C616D656E742073656E736FB3
:10460000720091005072696E742066616E3A009279
:1046100000486F74656E642066616E3A00930043D3
:10462000616C6962726174696E6720686F6D6500A4
:10463000940053656C6674657374206661696C657B
:1046400064009500416C6C20636F72726563740046
:104650009600436865636B696E672073656E736F60
:104660007273009700436865636B696E6720686FBB
:1046700074656E64009800436865636B696E6720BB
:10468000626564009900436865636B696E67205AD0
:104690002061786973009A00436865636B696E678F
:1046A00020592061786973009B00436865636B69DA
:1046B0006E6720582061786973009C0043686563C9
:1046C0006B696E6720656E6473746F7073009D0014
:1046D000436172642072656D6F766564009E00426E
:1046E00061636B009F004175746F20706F77657216
:1046F00000A00053696C656E7400A1004D6F646585
:1047000000A2004869676820706F77657200A30097
:10471000486F74656E642061742032383043212004
:104720004E6F7A7A6C65206368616E67656420619C
:104730006E64207469676874656E656420746F20A8
:1047400073706563733F00A400466F722061204E52
:104750006F7A7A6C65206368616E676520706C653E
:1047600061736520726561640A70727573612E6988
:104770006F2F6E6F7A7A6C652D6D6B337300A500A9
:104780005049442063616C2E2066696E69736865C8
:104790006400A6005049442063616C2E00A70050BD
:1047A00072696E742070617573656400A800507240
:1047B000696E742061626F7274656400A900436F52
:1047C00070792073656C6563746564206C616E67D5
:1047D000756167653F00AA004E6F7A7A6C65206448
:1047E00069616D65746572206469666665727320BF
:1047F00066726F6D2074686520472D636F64652E47
:1048000020436F6E74696E75653F00AB004E6F7A22
:104810007A6C65206469616D65746572206469668F
:10482000666572732066726F6D2074686520472D0F
:10483000636F64652E20506C6561736520636865E5
:10484000636B207468652076616C756520696E20E5
:1048500073657474696E67732E205072696E74206C
:1048600063616E63656C6C65642E00AC004F6666B8
:1048700000AD004F6E00AE0054686572652069732C
:10488000207374696C6C2061206E65656420746FA0
:10489000206D616B65205A2063616C69627261747E
:1048A000696F6E2E20506C6561736520666F6C6C4D
:1048B0006F7720746865206D616E75616C2C206364
:1048C00068617074657220466972737420737465D0
:1048D00070732C2073656374696F6E2043616C691B
:1048E00062726174696F6E20666C6F772E00AF0024
:1048F0005072696E74657220686173206E6F7420E7
:104900006265656E2063616C6962726174656420C2
:104910007965742E20506C6561736520666F6C6CD0
:104920006F7720746865206D616E75616C2C2063F3
:10493000686170746572204669727374207374655F
:1049400070732C2073656374696F6E2043616C69AA
:1049500062726174696F6E20666C6F772E00B000B2
:1049600053656C66746573742077696C6C2062653E
:104970002072756E20746F2063616C69627261745D
:10498000652061636375726174652073656E736F12
:10499000726C657373207265686F6D696E672E0047
:1049A000B1004F6C642073657474696E6773206620
:1049B0006F756E642E2044656661756C7420504975
:1049C000442C20457374657073206574632E2077C2
:1049D000696C6C206265207365742E00B2005761AB
:1049E000726E696E673A20626F7468207072696EC9
:1049F000746572207479706520616E64206D6F74C7
:104A0000686572626F617264207479706520636892
:104A1000616E6765642E00B3005761726E696E67E0
:104A20003A207072696E74657220747970652063C3
:104A300068616E6765642E00B4005761726E696EBE
:104A4000673A206D6F74686572626F61726420747A
:104A5000797065206368616E6765642E00B50054E7
:104A6000657374696E672066696C616D656E74004C
:104A7000B600536865657400B7004E6F742073709C
:104A8000696E6E696E6700B8005370696E6E696E0C
:104A90006700B9004C65667420686F74656E6420A9
:104AA00066616E3F00BA0046726F6E742070726964
:104AB0006E742066616E3F00BB0046616E207465B7
:104AC000737400BC0058595A2063616C696272614A
:104AD00074696F6E20616C6C2072696768742E2037
:104AE000536B65772077696C6C20626520636F7209
:104AF000726563746564206175746F6D6174696358
:104B0000616C6C792E00BD0058595A2063616C6944
:104B100062726174696F6E20616C6C207269676883
:104B2000742E20582F59206178657320617265209A
:104B3000736C696768746C7920736B657765642E34
:104B400020476F6F64206A6F622100BE0058595A77
:104B50002063616C6962726174696F6E206F6B2E85
:104B600020582F5920617865732061726520706527
:104B70007270656E646963756C61722E20436F6E2E
:104B800067726174756C6174696F6E732100BF0028
:104B900058595A2063616C6962726174696F6E2042
:104BA000636F6D70726F6D697365642E20526967F3
:104BB00068742066726F6E742063616C69627261E2
:104BC00074696F6E20706F696E74206E6F742072DE
:104BD0006561636861626C652E00C00058595A2097
:104BE00063616C6962726174696F6E20636F6D706E
:104BF000726F6D697365642E2046726F6E742063E8
:104C0000616C6962726174696F6E20706F696E7435
:104C100073206E6F7420726561636861626C652ECB
:104C200000C10058595A2063616C696272617469ED
:104C30006F6E206661696C65642E205269676874C6
:104C40002066726F6E742063616C69627261746950
:104C50006F6E20706F696E74206E6F742072656164
:104C6000636861626C652E00C20058595A20636106
:104C70006C6962726174696F6E206661696C6564EB
:104C80002E2046726F6E742063616C69627261746B
:104C9000696F6E20706F696E7473206E6F7420720E
:104CA0006561636861626C652E00C30058595A20C3
:104CB00063616C6962726174696F6E206661696CB0
:104CC00065642E20506C6561736520636F6E73752B
:104CD0006C7420746865206D616E75616C2E00C403
:104CE0000058595A2063616C6962726174696F6E11
:104CF000206661696C65642E204265642063616C86
:104D00006962726174696F6E20706F696E7420776A
:104D10006173206E6F7420666F756E642E00C5001F
:104D2000506C6561736520706C6163652073746598
:104D3000656C207368656574206F6E2068656174AA
:104D40006265642E00C60044697374616E636520F9
:104D50006265747765656E20746970206F66207473
:104D60006865206E6F7A7A6C6520616E6420746865
:104D70006520626564207375726661636520686191
:104D800073206E6F74206265656E20736574207980
:104D900065742E20506C6561736520666F6C6C6F56
:104DA0007720746865206D616E75616C2C20636876
:104DB00061707465722046697273742073746570D3
:104DC000732C2073656374696F6E20466972737407
:104DD000206C617965722063616C696272617469CB
:104DE0006F6E2E00C700506C616365206120736890
:104DF000656574206F6620706170657220756E64E1
:104E0000657220746865206E6F7A7A6C65206475AF
:104E100072696E67207468652063616C6962726193
:104E200074696F6E206F6620666972737420342017
:104E3000706F696E74732E20496620746865206EE9
:104E40006F7A7A6C65206361746368657320746837
:104E5000652070617065722C20706F776572206FAD
:104E6000666620746865207072696E746572206968
:104E70006D6D6564696174656C792E00C800506C55
:104E8000656173652072656D6F7665207374656505
:104E90006C2073686565742066726F6D206865614B
:104EA000746265642E00C900497320737465656C73
:104EB000207368656574206F6E2068656174626533
:104EC000643F00CA00536561726368696E6720625F
:104ED00065642063616C6962726174696F6E2070D1
:104EE0006F696E7400CB004D6561737572696E6792
:104EF000207265666572656E6365206865696768BE
:104F000074206F662063616C6962726174696F6E90
:104F100020706F696E7400CC00506C656173652001
:104F2000636C65616E20746865206E6F7A7A6C655B
:104F300020666F722063616C6962726174696F6E62
:104F40002E20436C69636B207768656E20646F6EFA
:104F5000652E00CD004175746F20686F6D6500CEC1
:104F600000556E6578706563746564206572726F54
:104F700072206F636375727265642E00CF004D36C8
:104F800030302046696C616D656E74204368616ED7
:104F900067652E204C6F61642061206E6577206606
:104FA000696C616D656E74206F7220656A656374EB
:104FB00020746865206F6C64206F6E652E00D000D1
:104FC00052656D6F76652074686520656A656374E7
:104FD00065642066696C616D656E742066726F6DC4
:104FE000207468652066726F6E74206F6620746826
:104FF00065204D4D552E00D10046696C616D656E82
:105000007420646574656374656420756E6578707A
:1050100065637465646C792E20456E7375726520C6
:105020006E6F2066696C616D656E74206973206CAB
:105030006F616465642E20436865636B20746865E6
:105040002073656E736F727320616E64207769726E
:10505000696E672E00D200496E7465726E616C20B5
:1050600072756E74696D65206572726F722E205450
:10507000727920726573657474696E6720746865EF
:10508000204D4D55206F72207570646174696E6794
:1050900020746865206669726D776172652E00D331
:1050A000004D4D552046572076657273696F6E200E
:1050B000697320696E636F6D70617469626C6520DD
:1050C00077697468207072696E7465722046572E15
:1050D00055706461746520746F2076657273696FB2
:1050E0006E20332E302E312E00D4004D4D552046EB
:1050F00069726D7761726520696E7465726E616C3C
:10510000206572726F722C20706C656173652072FD
:105110006573657420746865204D4D552E00D5006B
:105120005265717565737465642066696C616D653F
:105130006E7420746F6F6C206973206E6F742061C1
:105140007661696C61626C65206F6E20746869734A
:105150002068617264776172652E20436865636BB5
:105160002074686520472D636F646520666F722028
:10517000746F6F6C20696E646578206F7574206F32
:10518000662072616E6765202854302D5434292EB4
:1051900000D60043616E6E6F7420706572666F7228
:1051A0006D2074686520616374696F6E2C20666978
:1051B0006C616D656E7420697320616C72656164E9
:1051C00079206C6F616465642E20556E6C6F61642C
:1051D0002069742066697273742E00D7004D4D5596
:1051E000206E6F7420726573706F6E64696E6720D5
:1051F000636F72726563746C792E20436865636BAC
:105200002074686520776972696E6720616E64201A
:10521000636F6E6E6563746F72732E00D8004D4DB0
:1052200055206E6F7420726573706F6E64696E675F
:105230002E20436865636B20746865207769726906
:105240006E6720616E6420636F6E6E6563746F724B
:10525000732E00D9004D6F72652064657461696CAE
:1052600073206F6E6C696E652E00DA0054686520DD
:1052700049646C65722063616E6E6F7420686F6D37
:10528000652070726F7065726C792E20436865635B
:105290006B20666F7220616E797468696E67206238
:1052A0006C6F636B696E6720697473206D6F7665D0
:1052B0006D656E742E00DB0043616E2774206D6F88
:1052C00076652053656C6563746F72206F72204938
:1052D000646C65722E00DC005468652053656C6553
:1052E00063746F722063616E6E6F7420686F6D659A
:1052F0002070726F7065726C792E20436865636BE5
:1053000020666F7220616E797468696E6720626CC6
:105310006F636B696E6720697473206D6F76656D5E
:10532000656E742E00DD004C6F6164696E672074D9
:105330006F206578747275646572206661696C654A
:10534000642E20496E7370656374207468652066EE
:10535000696C616D656E742074697020736861702A
:10536000652E20526566696E6520746865207365D8
:105370006E736F722063616C6962726174696F6EC3
:105380002C206966206E65656465642E00DE00531E
:10539000656C6563746F722063616E2774206D6F36
:1053A00076652064756520746F2046494E4441201F
:1053B000646574656374696E6720612066696C61F9
:1053C0006D656E742E204D616B652073757265205E
:1053D0006E6F2066696C616D656E742069732069FB
:1053E0006E2053656C6563746F7220616E64204635
:1053F000494E444120776F726B732070726F7065F5
:10540000726C792E00DF0046696C616D656E7420E8
:1054100073656E736F722074726967676572656415
:1054200020746F6F206561726C79207768696C6594
:10543000206C6F6164696E6720746F206578747288
:10544000756465722E20436865636B2074686572AD
:10545000652069736E277420616E797468696E6760
:1054600020737475636B20696E2050544645207418
:105470007562652E20436865636B207468617420D3
:1054800073656E736F722072656164732070726FE2
:105490007065726C792E00E00050756C6C65792037
:1054A0006D6F746F72207374616C6C65642E20452F
:1054B0006E73757265207468652070756C6C6579A3
:1054C0002063616E206D6F766520616E6420636875
:1054D00065636B2074686520776972696E672E005A
:1054E000E10046696C616D656E742073656E736F63
:1054F00072206469646E277420737769746368200E
:105500006F6666207768696C6520756E6C6F616484
:10551000696E672066696C616D656E742E20456EDC
:10552000737572652066696C616D656E7420636168
:105530006E206D6F766520616E64207468652073DF
:10554000656E736F7220776F726B732E00E2004688
:10555000696C616D656E742073656E736F72206423
:1055600069646E2774207472696767657220776852
:10557000696C65206C6F6164696E67207468652072
:1055800066696C616D656E742E20456E737572650B
:10559000207468652073656E736F72206973206371
:1055A000616C6962726174656420616E6420746804
:1055B000652066696C616D656E74207265616368F3
:1055C00065642069742E00E30046494E444120641E
:1055D00069646E277420737769746368206F6666E8
:1055E000207768696C6520756E6C6F6164696E67A1
:1055F0002066696C616D656E742E20547279207519
:105600006E6C6F6164696E67206D616E75616C6C44
:10561000792E20456E737572652066696C616D65C3
:105620006E742063616E206D6F766520616E6420FC
:1056300046494E444120776F726B732E00E400465A
:10564000494E4441206469646E277420747269670E
:10565000676572207768696C65206C6F6164696E3C
:1056600067207468652066696C616D656E742E20B4
:10567000456E73757265207468652066696C616D2E
:10568000656E742063616E206D6F766520616E6457
:105690002046494E444120776F726B732E00E5001F
:1056A00044697361626C6500E60053746F7000E7D3
:1056B00000456A65637400E8004C6F616400E900AE
:1056C000556E6C6F616400EA0052657365744D4DF0
:1056D0005500EB00526574727900EC00426564205D
:1056E0006C6576656C696E67206661696C65642EB1
:1056F0002053656E736F72206469646E2774207422
:105700007269676765722E20446562726973206FE3
:105710006E206E6F7A7A6C653F2057616974696E8E
:105720006720666F722072657365742E00ED0053FA
:10573000656E736974697669747900EE00446F6E02
:105740006500EF00526573756D696E672070726950
:105750006E7400F00050494E444120486561746900
:105760006E6700F10043616C6962726174696F6E0B
:1057700020646F6E6500F20043616C69627261744F
:10578000696E67205A00F30042656420646F6E659D
:1057900000F4004265642048656174696E6700F535
:1057A0000048656174696E6720646F6E652E00F64F
:1057B0000048656174696E6700F700546F74616C2E
:1057C00000F8004C617374207072696E7400F90007
:1057D0004C617374207072696E74206661696C75B7
:1057E00072657300FA00546F74616C206661696CB5
:1057F0007572657300FB004D4D55206661696C73D1
:1058000000FC004D4D55206C6F6164206661696C31
:105810007300FD004D4D5520706F776572206661F5
:10582000696C7300FE004D6174657269616C206380
:1058300068616E67657300FF0054656D7065726125
:10584000747572657300000153656E736F72206921
:105850006E666F0001014578747275646572206927
:105860006E666F00020158595A2063616C2E2064E5
:10587000657461696C730003015072696E746572BE
:1058800020495020416464723A000401756E6B6EC9
:105890006F776E0005014D4D5520636F6E6E656329
:1058A000746564000601446174653A000701746F11
:1058B00020756E6C6F61642066696C616D656E74D5
:1058C000000801746F206C6F61642066696C616D03
:1058D000656E7400090150726573732074686520E9
:1058E0006B6E6F62000A0150726568656174696E63
:1058F0006720746F20637574000B015072656865D2
:105900006174696E6720746F20656A656374000C4A
:105910000150726568656174696E6720746F2075E7
:105920006E6C6F6164000D01507265686561746929
:105930006E6720746F206C6F6164000E01436F6F9F
:105940006C646F776E000F0146696C616D656E74F3
:1059500020657874727564696E6720262077697493
:105960006820636F727265637420636F6C6F723F3F
:1059700000100146696C616D656E74207573656415
:105980000011015072696E742074696D6500120116
:10599000546F74616C2066696C616D656E74001380
:1059A00001546F74616C207072696E742074696D3B
:1059B0006500140150726568656174207468652023
:1059C0006E6F7A7A6C65210015014552524F523A3A
:1059D000001601592064697374616E6365206672F4
:1059E0006F6D206D696E0017014C656674001801BB
:1059F00052696768740019014D6561737572656459
:105A000020736B6577001A01536C696768742073A3
:105A10006B6577001B0153657665726520736B6556
:105A200077001C015B303B305D20706F696E742025
:105A30006F6666736574001D0141646A75737469ED
:105A40006E67205A001E0152656172207369646599
:105A5000205BE46D5D001F0146726F6E74207369F8
:105A600064655BE46D5D00200152696768742073B2
:105A70006964655BE46D5D0021014C6566742073AB
:105A8000696465205BE46D5D0022015365742074D8
:105A9000656D70657261747572653A0023014172BB
:105AA00065206C65667420616E6420726967687435
:105AB000205A7E63617272696167657320616C6CE4
:105AC0002075703F00240143616C696272617469E2
:105AD0006E672058595A2E20526F74617465207475
:105AE0006865206B6E6F6220746F206D6F76652025
:105AF000746865205A2063617272696167652075F8
:105B00007020746F2074686520656E642073746FF4
:105B100070706572732E20436C69636B20776865C3
:105B20006E20646F6E652E00250143616C696272A0
:105B30006174696E67205A2E20526F7461746520FB
:105B4000746865206B6E6F6220746F206D6F766570
:105B500020746865205A20636172726961676520EC
:105B6000757020746F2074686520656E642073748E
:105B70006F70706572732E20436C69636B20776859
:105B8000656E20646F6E652E00260150494E4441BB
:105B90002063616C6962726174696F6E206661690D
:105BA0006C656400270150494E44412063616C6973
:105BB00062726174696F6E2069732066696E6973C1
:105BC00068656420616E64206163746976652E2067
:105BD00049742063616E2062652064697361626C40
:105BE000656420696E206D656E75205365747469F7
:105BF0006E67732D3E50494E44412063616C2E0008
:105C0000280145787472756465720029014D6F76BC
:105C100065205A002A014D6F76652059002B014DF1
:105C20006F76652058002C0146656564696E6720B3
:105C3000746F204653656E736F72002D014D6F7641
:105C4000696E672073656C6563746F72002E01481E
:105C50006F6D696E67002F01526574726163742005
:105C600066726F6D2046494E4441003001456A65B9
:105C70006374696E672066696C616D656E7400316E
:105C8000015061726B696E672073656C6563746F38
:105C90007200320152657475726E696E67207365A9
:105CA0006C6563746F72003301506572666F726D5C
:105CB000696E672063757400340150757368696E8E
:105CC000672066696C616D656E74003501507265A0
:105CD000706172696E6720626C61646500360153A1
:105CE000656C656374696E672066696C2E20736CE1
:105CF0006F74003701556E6C6F6164696E67206662
:105D0000696C616D656E7400380145525220544DC6
:105D100043206661696C6564003901455252204830
:105D2000656C702066696C616D656E74003A014542
:105D3000525220496E7465726E616C003B0145528F
:105D400052205761697420666F7220557365720026
:105D50003C0146696E697368696E67206D6F766590
:105D60006D656E7473003D0141766F6964696E679D
:105D7000206772696E64003E0146656564696E67FE
:105D800020746F206E6F7A7A6C65003F01466565FE
:105D900064696E6720746F206578747275646572CB
:105DA00000400146656564696E6720746F2046494E
:105DB0004E4441004101556E6C6F6164696E67200D
:105DC000746F2070756C6C6579004201556E6C6F54
:105DD0006164696E6720746F2046494E44410043F8
:105DE00001446973656E676167696E672069646CF9
:105DF0006572004401456E676167696E672069647A
:105E00006C65720045014F4B004601554E4B4E4F9D
:105E1000574E204552524F5200470146494C414D82
:105E2000454E54204348414E474500480146494CA1
:105E3000414D454E5420454A45435445440049018F
:105E4000554E4C4F4144204D414E55414C4C59000C
:105E50004A0146572052554E54494D45204552520D
:105E60004F52004B014D4D5520465720555044414F
:105E70005445204E4545444544004C015155455537
:105E8000452046554C4C004D01494E56414C494425
:105E900020544F4F4C004E0146494C2E20414C524D
:105EA00045414459204C4F41444544004F01434F24
:105EB0004D4D554E49434154494F4E204552524F46
:105EC000520050014D4D55204E4F542052455350D5
:105ED0004F4E44494E470051014D4D55204D4355BD
:105EE000204552524F520052014D4D552053454CC2
:105EF0004654455354204641494C454400530154AF
